:100000000C9434000C943E000C943E000C943E0082
:100010000C943E000C9440000C943E000C943E0066
:100020000C943E000C943E000C943E000C943E0058
:100030000C943E000C943E000C943E000C943E0048
:100040000C943E000C943E000C943E000C943E0038
:100050000C943E000C943E000C943E000C943E0028
:100060000C943E000C943E0011241FBECFEFD4E050
:10007000DEBFCDBF0E9465000C9476000C9400009A
:100080001F920F920FB60F9211248F939F9388B1F6
:1000900090E2892788B99F918F910F900FBE0F90A2
:1000A0001F90189583B7817F846083BF83B7816079
:1000B00083BF789483B7816083BF889583B78E7F31
:1000C00083BF83B78E7F83BF08953D9A3A9A559830
:1000D00051985D9A599A8091680084608093680075
:1000E00082E280936D000E945200FDCFF894FFCF12
:00000001FF
