:100000000C9434000C943E000C943E000C943E0082
:100010000C943E000C943E000C943E000C943E0068
:100020000C943E000C943E000C943E000C943E0058
:100030000C943E000C943E000C943E000C943E0048
:100040000C943E000C943E000C943E000C943E0038
:100050000C943E000C943E000C943E000C943E0028
:100060000C943E000C943E0011241FBECFEFD4E050
:10007000DEBFCDBF0E9440000C9451000C940000E4
:100080003D9A3A9A51985598599A5D9A4D9B02C05B
:10009000429801C0429A499B02C04598F7CF459AC1
:0600A000F5CFF894FFCF3C
:00000001FF
