:100000000C9434000C943E000C943E000C943E0082
:100010000C943E000C943E000C943E000C943E0068
:100020000C943E000C943E000C943E000C943E0058
:100030000C943E000C943E000C943E000C943E0048
:100040000C943E000C943E000C943E000C943E0038
:100050000C943E000C943E000C943E000C943E0028
:100060000C943E000C943E0011241FBECFEFD4E050
:10007000DEBFCDBF0E9440000C9451000C940000E4
:100080003D9A3A9A559851985D9A599A499B02C05F
:10009000459801C0459A4D9B02C04298F7CF429ABD
:0600A000F5CFF894FFCF3C
:00000001FF
