:100000000C9434000C943E000C943E000C943E0082
:100010000C943E000C9440000C943E000C943E0066
:100020000C943E000C943E000C943E000C943E0058
:100030000C943E000C943E000C943E000C943E0048
:100040000C943E000C943E000C943E000C943E0038
:100050000C943E000C943E000C943E000C943E0028
:100060000C943E000C943E0011241FBECFEFD4E050
:10007000DEBFCDBF0E9452000C9462000C940000C1
:100080001F920F920FB60F9211248F939F9388B1F6
:1000900090E2892788B99F918F910F900FBE0F90A2
:1000A0001F9018953D9A3A9A559851985D9A599A89
:1000B0008091680084608093680082E280936D0084
:0800C0007894FFCFF894FFCF04
:00000001FF
