:100000000C9434000C943E000C943E000C943E0082
:100010000C943E000C943E000C943E000C943E0068
:100020000C943E000C943E000C943E000C94400056
:100030000C943E000C943E000C943E000C943E0048
:100040000C943E000C943E000C943E000C943E0038
:100050000C943E000C943E000C943E000C943E0028
:100060000C943E000C943E0011241FBECFEFD4E050
:10007000DEBFCDBF0E9465000C9469000C940000A7
:100080001F920F920FB60F9211248F939F9388B1F6
:1000900090E2892788B99F918F910F900FBE0F90A2
:1000A0001F901895E1E8F0E080818860808380816E
:1000B0008360808383EC99E090938900809388002B
:1000C00082E080936F00789408953D9A0E945200D8
:0600D000FFCFF894FFCF02
:00000001FF
