:100000000C9434000C943E000C943E000C943E0082
:100010000C943E000C943E000C943E000C943E0068
:100020000C943E000C943E000C943E000C943E0058
:100030000C943E000C9440000C943E000C943E0046
:100040000C943E000C943E000C943E000C943E0038
:100050000C943E000C943E000C943E000C943E0028
:100060000C943E000C943E0011241FBECFEFD4E050
:10007000DEBFCDBF0E9458000C9467000C940000B6
:100080001F920F920FB60F9211248F939F9388B1F6
:1000900090E2892788B98DEB90EF9093850080934B
:1000A00084009F918F910F900FBE0F901F90189515
:1000B0003D9A8DEB90EF909385008093840084E0CF
:1000C0008093810081E080936F007894FFCFF89453
:0200D000FFCF60
:00000001FF
