:100000000C9434000C9449000C9449000C94490061
:100010000C9449000C9449000C9449000C9449003C
:100020000C9449000C9449000C9449000C9449002C
:100030000C9449000C945F000C9449000C94490006
:100040000C944B000C9449000C9449000C9449000A
:100050000C9449000C9449000C9449000C944900FC
:100060000C9449000C94490011241FBECFEFD4E03A
:10007000DEBFCDBF11E0A0E0B1E0E4E2F1E002C0FC
:1000800005900D92A030B107D9F70E948B000C9417
:1000900090000C9400001F920F920FB60F92112443
:1000A0008F939F9388B190E2892788B980E886BDB5
:1000B0009F918F910F900FBE0F901F9018951F92D8
:1000C0000F920FB60F9211248F939F9388B194E0F3
:1000D000892788B98CED9BE09093850080938400FC
:1000E0009F918F910F900FBE0F901F90189585E0F4
:1000F00085BD82E08093810080E886BD8CED9BE029
:10010000909385008093840081E080936E008093BB
:100110006F00789408953D9A3A9A0E947700FFCF35
:04012000F894FFCF81
:00000001FF
